:100000000C9462000C948A000C948A000C948A0070
:100010000C948A000C948A000C948A000C948A0038
:100020000C948A000C948A000C948A000C948A0028
:100030000C948A000C948A000C948A000C948A0018
:100040000C94AD020C948A000C947B020C94550223
:100050000C948A000C948A000C948A000C948A00F8
:100060000C948A000C948A000000000024002700F1
:100070002A000000000023002600290000000000E4
:10008000250028002B0004040404040404040202D4
:100090000202020203030303030301020408102007
:1000A0004080010204081020010204081020000012
:1000B0000008000201000003040700000000000027
:1000C0000000EF0311241FBECFEFD8E0DEBFCDBF8D
:1000D00011E0A0E0B1E0E8E4F8E002C005900D9284
:1000E000A634B107D9F721E0A6E4B1E001C01D9222
:1000F000AE3EB207E1F710E0C2E6D0E004C02197BF
:10010000FE010E941C04C136D107C9F70E94F70204
:100110000C9422040C940000AF92BF92CF92DF9215
:10012000EF92FF920F931F93CF93DF936C017B01AC
:100130008B01040F151FEB015E01AE18BF08C0173D
:10014000D10759F06991D601ED91FC910190F081B0
:10015000E02DC6010995892B79F7C501DF91CF9173
:100160001F910F91FF90EF90DF90CF90BF90AF90D5
:100170000895FC01538D448D252F30E0842F90E0AD
:10018000821B930B541710F0CF9608950197089592
:10019000FC01918D828D981761F0A28DAE0FBF2F5B
:1001A000B11D5D968C91928D9F5F9F73928F90E0B1
:1001B00008958FEF9FEF0895FC01918D828D981720
:1001C00031F0828DE80FF11D858D90E008958FEF5D
:1001D0009FEF0895FC01918D228D892F90E0805C26
:1001E0009F4F821B91098F739927089581E591E0B4
:1001F0000E94EA0021E0892B09F420E0822F089573
:1002000080E090E0892B29F00E94F60081110C9487
:1002100000000895FC01A48DA80FB92FB11DA35AA9
:10022000BF4F2C91848D90E001968F739927848F16
:10023000A689B7892C93A089B1898C918370806439
:100240008C93938D848D981306C00288F389E02DDA
:1002500080818F7D80830895EF92FF920F931F938B
:10026000CF93DF93EC0181E0888F9B8D8C8D981369
:100270001AC0E889F989808185FF15C09FB7F89475
:10028000EE89FF896083E889F989808183708064C1
:1002900080839FBF81E090E0DF91CF911F910F910C
:1002A000FF90EF900895F62E0B8D10E00F5F1F4F1B
:1002B0000F731127E02E8C8D8E110CC00FB607FC2A
:1002C000FACFE889F989808185FFF5CFCE010E94B8
:1002D0000A01F1CFEB8DEC0FFD2FF11DE35AFF4F1B
:1002E000F0829FB7F8940B8FEA89FB898081806246
:1002F000CFCFCF93DF93EC01888D8823B9F0AA8903
:10030000BB89E889F9898C9185FD03C0808186FDD0
:100310000DC00FB607FCF7CF8C9185FFF2CF80811F
:1003200085FFEDCFCE010E940A01E9CFDF91CF9189
:100330000895833081F028F4813099F08230A9F05B
:1003400008958730A9F08830C9F08430B1F48091E5
:1003500080008F7D03C0809180008F778093800024
:10036000089584B58F7784BD089584B58F7DFBCFC4
:100370008091B0008F778093B00008958091B00095
:100380008F7DF9CF1F93CF93DF93E0EBF0E0949153
:10039000ECE9F0E0D491E8E8F0E0C491CC23B9F0C6
:1003A000182F992319F0892F0E949901EC2FF0E062
:1003B000EE0FFF1FE458FF4FA591B4918FB7F8944B
:1003C000EC91111108C0D095DE23DC938FBFDF9133
:1003D000CF911F910895DE2BF8CF3FB7F89480910D
:1003E0004B0190914C01A0914D01B0914E0126B569
:1003F000A89B05C02F3F19F00196A11DB11D3FBF5D
:10040000BA2FA92F982F8827BC01CD01620F711D2B
:10041000811D911D42E0660F771F881F991F4A9525
:10042000D1F708958F929F92AF92BF92CF92DF92B1
:10043000EF92FF920E94ED014B015C0184EFC82E08
:10044000DD24D394E12CF12C0E94ED016819790987
:100450008A099B09683E734081059105A8F321E054
:10046000C21AD108E108F10888EE880E83E0981ED0
:10047000A11CB11CC114D104E104F10429F7FF90BF
:10048000EF90DF90CF90BF90AF909F908F900895A6
:10049000FC0101900020E9F73197AF01481B590B8F
:1004A000BC0181E591E00C948C001F920F920FB675
:1004B0000F9211242F933F934F935F936F937F93EA
:1004C0008F939F93AF93BF93EF93FF9381E591E059
:1004D0000E940A01FF91EF91BF91AF919F918F917F
:1004E0007F916F915F914F913F912F910F900FBE30
:1004F0000F901F9018951F920F920FB60F92112414
:100500002F938F939F93EF93FF93E0916101F0916D
:1005100062018081E0916701F091680182FD1BC05A
:10052000908180916A018F5F8F7320916B01821798
:1005300041F0E0916A01F0E0EF5AFE4F958F809311
:100540006A01FF91EF919F918F912F910F900FBEB4
:100550000F901F9018958081F4CF1F920F920FB6C5
:100560000F9211242F933F938F939F93AF93BF9339
:100570008091470190914801A0914901B0914A01B1
:100580003091460123E0230F2D3758F50196A11D28
:10059000B11D209346018093470190934801A09399
:1005A0004901B0934A0180914B0190914C01A09177
:1005B0004D01B0914E010196A11DB11D80934B01DB
:1005C00090934C01A0934D01B0934E01BF91AF9118
:1005D0009F918F913F912F910F900FBE0F901F9081
:1005E000189526E8230F0296A11DB11DD2CFCF93F7
:1005F000DF93CDB7DEB7A1970FB6F894DEBF0FBE7D
:10060000CDBF789484B5826084BD84B5816084BD9B
:1006100085B5826085BD85B5816085BD80916E00A0
:10062000816080936E0010928100809181008260D1
:10063000809381008091810081608093810080910E
:1006400080008160809380008091B10084608093FD
:10065000B1008091B00081608093B00080917A00F9
:10066000846080937A0080917A00826080937A001F
:1006700080917A00816080937A0080917A0080680E
:1006800080937A001092C100E0916101F0916201C3
:1006900082E08083E0915D01F0915E011082E09143
:1006A0005F01F09160018FEC808310926901E0910D
:1006B0006501F091660186E08083E0916301F0912D
:1006C0006401808180618083E0916301F091640125
:1006D000808188608083E0916301F0916401808172
:1006E00080688083E0916301F091640180818F7D57
:1006F0008083ECE9F0E02491E8E8F0E0849188233D
:1007000099F090E0880F991FFC01E859FF4FA591DF
:10071000B491FC01E458FF4F859194918FB7F89400
:10072000EC91E22BEC938FBF0BEB10E097EAE92EF4
:1007300090E0F92E23E9C22E20E0D22E30E0A32E45
:1007400030E0B32EF8018491F7019490F601849083
:10075000882009F43BC081110E949901E82DF0E046
:10076000EE0FFF1FEE58FF4FA591B4918C91982288
:1007700081E090E009F480E080934F019093500174
:1007800019A2805D88A3CE0180960E9448028091C4
:100790004F01909150010197E1F481E00E94C20164
:1007A00082E191E00E94480286E291E00E944802C4
:1007B0000E941202A114B10409F4C4CF0E94F600F1
:1007C000882309F4BFCF0E940000BCCF80E090E0F6
:1007D000D3CF80E00E94C20189E291E0E3CFE1E55E
:1007E000F1E01382128288EE93E0A0E0B0E084830F
:1007F0009583A683B78384E091E09183808385EC21
:1008000090E09587848784EC90E09787868780ECDA
:1008100090E0918B808B81EC90E0938B828B82ECCB
:1008200090E0958B848B86EC90E0978B868B118E75
:10083000128E138E148E0895EE0FFF1F0590F49103
:08084000E02D0994F894FFCFAC
:10084800000000002C018C00B9007901EA00C80002
:10085800DC002A2A2A414441204E59414C4120417A
:1008680050492A2A2A000D0A00544944414B204184
:100878004441204E59414C4120415049207E20534B
:06088800414E54555900D9
:00000001FF
